{
	"contracts/MyContract.sol": {
		"MyContract": {
			"abi": [
				{
					"inputs": [],
					"name": "getvalue",
					"outputs": [
						{
							"internalType": "uint256",
							"name": "",
							"type": "uint256"
						}
					],
					"stateMutability": "pure",
					"type": "function"
				},
				{
					"inputs": [],
					"name": "myAddress",
					"outputs": [
						{
							"internalType": "address",
							"name": "",
							"type": "address"
						}
					],
					"stateMutability": "view",
					"type": "function"
				},
				{
					"inputs": [],
					"name": "myBytes32",
					"outputs": [
						{
							"internalType": "bytes32",
							"name": "",
							"type": "bytes32"
						}
					],
					"stateMutability": "view",
					"type": "function"
				},
				{
					"inputs": [],
					"name": "myInt",
					"outputs": [
						{
							"internalType": "int256",
							"name": "",
							"type": "int256"
						}
					],
					"stateMutability": "view",
					"type": "function"
				},
				{
					"inputs": [],
					"name": "myString",
					"outputs": [
						{
							"internalType": "string",
							"name": "",
							"type": "string"
						}
					],
					"stateMutability": "view",
					"type": "function"
				},
				{
					"inputs": [],
					"name": "myStruct",
					"outputs": [
						{
							"internalType": "uint256",
							"name": "myUint",
							"type": "uint256"
						},
						{
							"internalType": "string",
							"name": "myString",
							"type": "string"
						}
					],
					"stateMutability": "view",
					"type": "function"
				},
				{
					"inputs": [],
					"name": "myUint",
					"outputs": [
						{
							"internalType": "uint256",
							"name": "",
							"type": "uint256"
						}
					],
					"stateMutability": "view",
					"type": "function"
				},
				{
					"inputs": [],
					"name": "myUint256",
					"outputs": [
						{
							"internalType": "uint256",
							"name": "",
							"type": "uint256"
						}
					],
					"stateMutability": "view",
					"type": "function"
				},
				{
					"inputs": [],
					"name": "myUint8",
					"outputs": [
						{
							"internalType": "uint8",
							"name": "",
							"type": "uint8"
						}
					],
					"stateMutability": "view",
					"type": "function"
				}
			],
			"devdoc": {
				"kind": "dev",
				"methods": {},
				"version": 1
			},
			"evm": {
				"assembly": "    /* \"contracts/MyContract.sol\":61:826  contract MyContract {\r... */\n  mstore(0x40, 0x80)\n    /* \"contracts/MyContract.sol\":133:134  1 */\n  0x01\n    /* \"contracts/MyContract.sol\":111:134  int256 public myInt = 1 */\n  0x00\n  sstore\n    /* \"contracts/MyContract.sol\":165:166  1 */\n  0x01\n    /* \"contracts/MyContract.sol\":141:166  uint256 public myUint = 1 */\n  dup1\n  sstore\n    /* \"contracts/MyContract.sol\":200:201  1 */\n  0x01\n    /* \"contracts/MyContract.sol\":173:201  uint256 public myUint256 = 1 */\n  0x02\n  sstore\n    /* \"contracts/MyContract.sol\":231:232  1 */\n  0x01\n    /* \"contracts/MyContract.sol\":208:232  uint8 public myUint8 = 1 */\n  0x03\n  exp(0x0100, 0x00)\n  dup2\n  sload\n  dup2\n  0xff\n  mul\n  not\n  and\n  swap1\n  dup4\n  0xff\n  and\n  mul\n  or\n  swap1\n  sstore\n  pop\n    /* \"contracts/MyContract.sol\":255:294  string public myString = \"Hello, world\" */\n  mload(0x40)\n  dup1\n  0x40\n  add\n  0x40\n  mstore\n  dup1\n  0x0c\n  dup2\n  mstore\n  0x20\n  add\n  0x48656c6c6f2c20776f726c640000000000000000000000000000000000000000\n  dup2\n  mstore\n  pop\n  0x04\n  swap1\n  dup1\n  mload\n  swap1\n  0x20\n  add\n  swap1\n  tag_1\n  swap3\n  swap2\n  swap1\n  tag_2\n  jump\t// in\ntag_1:\n  pop\n    /* \"contracts/MyContract.sol\":301:342  bytes32 public myBytes32 = \"Hello, world\" */\n  sstore(0x05, 0x48656c6c6f2c20776f726c640000000000000000000000000000000000000000)\n    /* \"contracts/MyContract.sol\":394:436  0x45b4B861265E78D7750d7407965535D38DD3a6c2 */\n  0x45b4b861265e78d7750d7407965535d38dd3a6c2\n    /* \"contracts/MyContract.sol\":367:436  address public myAddress = 0x45b4B861265E78D7750d7407965535D38DD3a6c2 */\n  0x06\n  exp(0x0100, 0x00)\n  dup2\n  sload\n  dup2\n  0xffffffffffffffffffffffffffffffffffffffff\n  mul\n  not\n  and\n  swap1\n  dup4\n  0xffffffffffffffffffffffffffffffffffffffff\n  and\n  mul\n  or\n  swap1\n  sstore\n  pop\n    /* \"contracts/MyContract.sol\":650:678  MyStruct(1, \"Hello, world!\") */\n  mload(0x40)\n  dup1\n  0x40\n  add\n  0x40\n  mstore\n  dup1\n    /* \"contracts/MyContract.sol\":659:660  1 */\n  0x01\n    /* \"contracts/MyContract.sol\":650:678  MyStruct(1, \"Hello, world!\") */\n  dup2\n  mstore\n  0x20\n  add\n  mload(0x40)\n  dup1\n  0x40\n  add\n  0x40\n  mstore\n  dup1\n  0x0d\n  dup2\n  mstore\n  0x20\n  add\n  0x48656c6c6f2c20776f726c642100000000000000000000000000000000000000\n  dup2\n  mstore\n  pop\n  dup2\n  mstore\n  pop\n    /* \"contracts/MyContract.sol\":623:678  MyStruct public myStruct = MyStruct(1, \"Hello, world!\") */\n  0x07\n  0x00\n  dup3\n  add\n  mload\n  dup2\n  0x00\n  add\n  sstore\n  0x20\n  dup3\n  add\n  mload\n  dup2\n  0x01\n  add\n  swap1\n  dup1\n  mload\n  swap1\n  0x20\n  add\n  swap1\n  tag_3\n  swap3\n  swap2\n  swap1\n  tag_2\n  jump\t// in\ntag_3:\n  pop\n  pop\n  pop\n    /* \"contracts/MyContract.sol\":61:826  contract MyContract {\r... */\n  callvalue\n  dup1\n  iszero\n  tag_4\n  jumpi\n  0x00\n  dup1\n  revert\ntag_4:\n  pop\n  jump(tag_5)\ntag_2:\n  dup3\n  dup1\n  sload\n  tag_6\n  swap1\n  tag_7\n  jump\t// in\ntag_6:\n  swap1\n  0x00\n  mstore\n  keccak256(0x00, 0x20)\n  swap1\n  0x1f\n  add\n  0x20\n  swap1\n  div\n  dup2\n  add\n  swap3\n  dup3\n  tag_9\n  jumpi\n  0x00\n  dup6\n  sstore\n  jump(tag_8)\ntag_9:\n  dup3\n  0x1f\n  lt\n  tag_10\n  jumpi\n  dup1\n  mload\n  not(0xff)\n  and\n  dup4\n  dup1\n  add\n  or\n  dup6\n  sstore\n  jump(tag_8)\ntag_10:\n  dup3\n  dup1\n  add\n  0x01\n  add\n  dup6\n  sstore\n  dup3\n  iszero\n  tag_8\n  jumpi\n  swap2\n  dup3\n  add\ntag_11:\n  dup3\n  dup2\n  gt\n  iszero\n  tag_12\n  jumpi\n  dup3\n  mload\n  dup3\n  sstore\n  swap2\n  0x20\n  add\n  swap2\n  swap1\n  0x01\n  add\n  swap1\n  jump(tag_11)\ntag_12:\ntag_8:\n  pop\n  swap1\n  pop\n  tag_13\n  swap2\n  swap1\n  tag_14\n  jump\t// in\ntag_13:\n  pop\n  swap1\n  jump\t// out\ntag_14:\ntag_15:\n  dup1\n  dup3\n  gt\n  iszero\n  tag_16\n  jumpi\n  0x00\n  dup2\n  0x00\n  swap1\n  sstore\n  pop\n  0x01\n  add\n  jump(tag_15)\ntag_16:\n  pop\n  swap1\n  jump\t// out\n    /* \"#utility.yul\":7:327   */\ntag_7:\n    /* \"#utility.yul\":51:57   */\n  0x00\n    /* \"#utility.yul\":88:89   */\n  0x02\n    /* \"#utility.yul\":82:86   */\n  dup3\n    /* \"#utility.yul\":78:90   */\n  div\n    /* \"#utility.yul\":68:90   */\n  swap1\n  pop\n    /* \"#utility.yul\":135:136   */\n  0x01\n    /* \"#utility.yul\":129:133   */\n  dup3\n    /* \"#utility.yul\":125:137   */\n  and\n    /* \"#utility.yul\":156:174   */\n  dup1\n    /* \"#utility.yul\":146:227   */\n  tag_19\n  jumpi\n    /* \"#utility.yul\":212:216   */\n  0x7f\n    /* \"#utility.yul\":204:210   */\n  dup3\n    /* \"#utility.yul\":200:217   */\n  and\n    /* \"#utility.yul\":190:217   */\n  swap2\n  pop\n    /* \"#utility.yul\":146:227   */\ntag_19:\n    /* \"#utility.yul\":274:276   */\n  0x20\n    /* \"#utility.yul\":266:272   */\n  dup3\n    /* \"#utility.yul\":263:277   */\n  lt\n    /* \"#utility.yul\":243:261   */\n  dup2\n    /* \"#utility.yul\":240:278   */\n  eq\n    /* \"#utility.yul\":237:321   */\n  iszero\n  tag_20\n  jumpi\n    /* \"#utility.yul\":293:311   */\n  tag_21\n  tag_22\n  jump\t// in\ntag_21:\n    /* \"#utility.yul\":237:321   */\ntag_20:\n    /* \"#utility.yul\":58:327   */\n  pop\n    /* \"#utility.yul\":7:327   */\n  swap2\n  swap1\n  pop\n  jump\t// out\n    /* \"#utility.yul\":333:513   */\ntag_22:\n    /* \"#utility.yul\":381:458   */\n  0x4e487b7100000000000000000000000000000000000000000000000000000000\n    /* \"#utility.yul\":378:379   */\n  0x00\n    /* \"#utility.yul\":371:459   */\n  mstore\n    /* \"#utility.yul\":478:482   */\n  0x22\n    /* \"#utility.yul\":475:476   */\n  0x04\n    /* \"#utility.yul\":468:483   */\n  mstore\n    /* \"#utility.yul\":502:506   */\n  0x24\n    /* \"#utility.yul\":499:500   */\n  0x00\n    /* \"#utility.yul\":492:507   */\n  revert\n    /* \"contracts/MyContract.sol\":61:826  contract MyContract {\r... */\ntag_5:\n  dataSize(sub_0)\n  dup1\n  dataOffset(sub_0)\n  0x00\n  codecopy\n  0x00\n  return\nstop\n\nsub_0: assembly {\n        /* \"contracts/MyContract.sol\":61:826  contract MyContract {\r... */\n      mstore(0x40, 0x80)\n      callvalue\n      dup1\n      iszero\n      tag_1\n      jumpi\n      0x00\n      dup1\n      revert\n    tag_1:\n      pop\n      jumpi(tag_2, lt(calldatasize, 0x04))\n      shr(0xe0, calldataload(0x00))\n      dup1\n      0x4b3e7e0c\n      gt\n      tag_12\n      jumpi\n      dup1\n      0x4b3e7e0c\n      eq\n      tag_7\n      jumpi\n      dup1\n      0x69bd01c4\n      eq\n      tag_8\n      jumpi\n      dup1\n      0x8bc9fe6c\n      eq\n      tag_9\n      jumpi\n      dup1\n      0xa7dbce1c\n      eq\n      tag_10\n      jumpi\n      dup1\n      0xe2a4b2af\n      eq\n      tag_11\n      jumpi\n      jump(tag_2)\n    tag_12:\n      dup1\n      0x06540f7e\n      eq\n      tag_3\n      jumpi\n      dup1\n      0x26b85ee1\n      eq\n      tag_4\n      jumpi\n      dup1\n      0x2cb777a6\n      eq\n      tag_5\n      jumpi\n      dup1\n      0x492bfa18\n      eq\n      tag_6\n      jumpi\n    tag_2:\n      0x00\n      dup1\n      revert\n        /* \"contracts/MyContract.sol\":141:166  uint256 public myUint = 1 */\n    tag_3:\n      tag_13\n      tag_14\n      jump\t// in\n    tag_13:\n      mload(0x40)\n      tag_15\n      swap2\n      swap1\n      tag_16\n      jump\t// in\n    tag_15:\n      mload(0x40)\n      dup1\n      swap2\n      sub\n      swap1\n      return\n        /* \"contracts/MyContract.sol\":367:436  address public myAddress = 0x45b4B861265E78D7750d7407965535D38DD3a6c2 */\n    tag_4:\n      tag_17\n      tag_18\n      jump\t// in\n    tag_17:\n      mload(0x40)\n      tag_19\n      swap2\n      swap1\n      tag_20\n      jump\t// in\n    tag_19:\n      mload(0x40)\n      dup1\n      swap2\n      sub\n      swap1\n      return\n        /* \"contracts/MyContract.sol\":111:134  int256 public myInt = 1 */\n    tag_5:\n      tag_21\n      tag_22\n      jump\t// in\n    tag_21:\n      mload(0x40)\n      tag_23\n      swap2\n      swap1\n      tag_24\n      jump\t// in\n    tag_23:\n      mload(0x40)\n      dup1\n      swap2\n      sub\n      swap1\n      return\n        /* \"contracts/MyContract.sol\":255:294  string public myString = \"Hello, world\" */\n    tag_6:\n      tag_25\n      tag_26\n      jump\t// in\n    tag_25:\n      mload(0x40)\n      tag_27\n      swap2\n      swap1\n      tag_28\n      jump\t// in\n    tag_27:\n      mload(0x40)\n      dup1\n      swap2\n      sub\n      swap1\n      return\n        /* \"contracts/MyContract.sol\":301:342  bytes32 public myBytes32 = \"Hello, world\" */\n    tag_7:\n      tag_29\n      tag_30\n      jump\t// in\n    tag_29:\n      mload(0x40)\n      tag_31\n      swap2\n      swap1\n      tag_32\n      jump\t// in\n    tag_31:\n      mload(0x40)\n      dup1\n      swap2\n      sub\n      swap1\n      return\n        /* \"contracts/MyContract.sol\":687:823  function getvalue() public pure returns (uint256) {\r... */\n    tag_8:\n      tag_33\n      tag_34\n      jump\t// in\n    tag_33:\n      mload(0x40)\n      tag_35\n      swap2\n      swap1\n      tag_16\n      jump\t// in\n    tag_35:\n      mload(0x40)\n      dup1\n      swap2\n      sub\n      swap1\n      return\n        /* \"contracts/MyContract.sol\":623:678  MyStruct public myStruct = MyStruct(1, \"Hello, world!\") */\n    tag_9:\n      tag_36\n      tag_37\n      jump\t// in\n    tag_36:\n      mload(0x40)\n      tag_38\n      swap3\n      swap2\n      swap1\n      tag_39\n      jump\t// in\n    tag_38:\n      mload(0x40)\n      dup1\n      swap2\n      sub\n      swap1\n      return\n        /* \"contracts/MyContract.sol\":173:201  uint256 public myUint256 = 1 */\n    tag_10:\n      tag_40\n      tag_41\n      jump\t// in\n    tag_40:\n      mload(0x40)\n      tag_42\n      swap2\n      swap1\n      tag_16\n      jump\t// in\n    tag_42:\n      mload(0x40)\n      dup1\n      swap2\n      sub\n      swap1\n      return\n        /* \"contracts/MyContract.sol\":208:232  uint8 public myUint8 = 1 */\n    tag_11:\n      tag_43\n      tag_44\n      jump\t// in\n    tag_43:\n      mload(0x40)\n      tag_45\n      swap2\n      swap1\n      tag_46\n      jump\t// in\n    tag_45:\n      mload(0x40)\n      dup1\n      swap2\n      sub\n      swap1\n      return\n        /* \"contracts/MyContract.sol\":141:166  uint256 public myUint = 1 */\n    tag_14:\n      sload(0x01)\n      dup2\n      jump\t// out\n        /* \"contracts/MyContract.sol\":367:436  address public myAddress = 0x45b4B861265E78D7750d7407965535D38DD3a6c2 */\n    tag_18:\n      0x06\n      0x00\n      swap1\n      sload\n      swap1\n      0x0100\n      exp\n      swap1\n      div\n      0xffffffffffffffffffffffffffffffffffffffff\n      and\n      dup2\n      jump\t// out\n        /* \"contracts/MyContract.sol\":111:134  int256 public myInt = 1 */\n    tag_22:\n      sload(0x00)\n      dup2\n      jump\t// out\n        /* \"contracts/MyContract.sol\":255:294  string public myString = \"Hello, world\" */\n    tag_26:\n      0x04\n      dup1\n      sload\n      tag_47\n      swap1\n      tag_48\n      jump\t// in\n    tag_47:\n      dup1\n      0x1f\n      add\n      0x20\n      dup1\n      swap2\n      div\n      mul\n      0x20\n      add\n      mload(0x40)\n      swap1\n      dup2\n      add\n      0x40\n      mstore\n      dup1\n      swap3\n      swap2\n      swap1\n      dup2\n      dup2\n      mstore\n      0x20\n      add\n      dup3\n      dup1\n      sload\n      tag_49\n      swap1\n      tag_48\n      jump\t// in\n    tag_49:\n      dup1\n      iszero\n      tag_50\n      jumpi\n      dup1\n      0x1f\n      lt\n      tag_51\n      jumpi\n      0x0100\n      dup1\n      dup4\n      sload\n      div\n      mul\n      dup4\n      mstore\n      swap2\n      0x20\n      add\n      swap2\n      jump(tag_50)\n    tag_51:\n      dup3\n      add\n      swap2\n      swap1\n      0x00\n      mstore\n      keccak256(0x00, 0x20)\n      swap1\n    tag_52:\n      dup2\n      sload\n      dup2\n      mstore\n      swap1\n      0x01\n      add\n      swap1\n      0x20\n      add\n      dup1\n      dup4\n      gt\n      tag_52\n      jumpi\n      dup3\n      swap1\n      sub\n      0x1f\n      and\n      dup3\n      add\n      swap2\n    tag_50:\n      pop\n      pop\n      pop\n      pop\n      pop\n      dup2\n      jump\t// out\n        /* \"contracts/MyContract.sol\":301:342  bytes32 public myBytes32 = \"Hello, world\" */\n    tag_30:\n      sload(0x05)\n      dup2\n      jump\t// out\n        /* \"contracts/MyContract.sol\":687:823  function getvalue() public pure returns (uint256) {\r... */\n    tag_34:\n        /* \"contracts/MyContract.sol\":728:735  uint256 */\n      0x00\n        /* \"contracts/MyContract.sol\":775:788  uint256 value */\n      dup1\n        /* \"contracts/MyContract.sol\":791:792  1 */\n      0x01\n        /* \"contracts/MyContract.sol\":775:792  uint256 value = 1 */\n      swap1\n      pop\n        /* \"contracts/MyContract.sol\":810:815  value */\n      dup1\n        /* \"contracts/MyContract.sol\":803:815  return value */\n      swap2\n      pop\n      pop\n        /* \"contracts/MyContract.sol\":687:823  function getvalue() public pure returns (uint256) {\r... */\n      swap1\n      jump\t// out\n        /* \"contracts/MyContract.sol\":623:678  MyStruct public myStruct = MyStruct(1, \"Hello, world!\") */\n    tag_37:\n      0x07\n      dup1\n      0x00\n      add\n      sload\n      swap1\n      dup1\n      0x01\n      add\n      dup1\n      sload\n      tag_54\n      swap1\n      tag_48\n      jump\t// in\n    tag_54:\n      dup1\n      0x1f\n      add\n      0x20\n      dup1\n      swap2\n      div\n      mul\n      0x20\n      add\n      mload(0x40)\n      swap1\n      dup2\n      add\n      0x40\n      mstore\n      dup1\n      swap3\n      swap2\n      swap1\n      dup2\n      dup2\n      mstore\n      0x20\n      add\n      dup3\n      dup1\n      sload\n      tag_55\n      swap1\n      tag_48\n      jump\t// in\n    tag_55:\n      dup1\n      iszero\n      tag_56\n      jumpi\n      dup1\n      0x1f\n      lt\n      tag_57\n      jumpi\n      0x0100\n      dup1\n      dup4\n      sload\n      div\n      mul\n      dup4\n      mstore\n      swap2\n      0x20\n      add\n      swap2\n      jump(tag_56)\n    tag_57:\n      dup3\n      add\n      swap2\n      swap1\n      0x00\n      mstore\n      keccak256(0x00, 0x20)\n      swap1\n    tag_58:\n      dup2\n      sload\n      dup2\n      mstore\n      swap1\n      0x01\n      add\n      swap1\n      0x20\n      add\n      dup1\n      dup4\n      gt\n      tag_58\n      jumpi\n      dup3\n      swap1\n      sub\n      0x1f\n      and\n      dup3\n      add\n      swap2\n    tag_56:\n      pop\n      pop\n      pop\n      pop\n      pop\n      swap1\n      pop\n      dup3\n      jump\t// out\n        /* \"contracts/MyContract.sol\":173:201  uint256 public myUint256 = 1 */\n    tag_41:\n      sload(0x02)\n      dup2\n      jump\t// out\n        /* \"contracts/MyContract.sol\":208:232  uint8 public myUint8 = 1 */\n    tag_44:\n      0x03\n      0x00\n      swap1\n      sload\n      swap1\n      0x0100\n      exp\n      swap1\n      div\n      0xff\n      and\n      dup2\n      jump\t// out\n        /* \"#utility.yul\":7:125   */\n    tag_60:\n        /* \"#utility.yul\":94:118   */\n      tag_62\n        /* \"#utility.yul\":112:117   */\n      dup2\n        /* \"#utility.yul\":94:118   */\n      tag_63\n      jump\t// in\n    tag_62:\n        /* \"#utility.yul\":89:92   */\n      dup3\n        /* \"#utility.yul\":82:119   */\n      mstore\n        /* \"#utility.yul\":7:125   */\n      pop\n      pop\n      jump\t// out\n        /* \"#utility.yul\":131:249   */\n    tag_64:\n        /* \"#utility.yul\":218:242   */\n      tag_66\n        /* \"#utility.yul\":236:241   */\n      dup2\n        /* \"#utility.yul\":218:242   */\n      tag_67\n      jump\t// in\n    tag_66:\n        /* \"#utility.yul\":213:216   */\n      dup3\n        /* \"#utility.yul\":206:243   */\n      mstore\n        /* \"#utility.yul\":131:249   */\n      pop\n      pop\n      jump\t// out\n        /* \"#utility.yul\":255:370   */\n    tag_68:\n        /* \"#utility.yul\":340:363   */\n      tag_70\n        /* \"#utility.yul\":357:362   */\n      dup2\n        /* \"#utility.yul\":340:363   */\n      tag_71\n      jump\t// in\n    tag_70:\n        /* \"#utility.yul\":335:338   */\n      dup3\n        /* \"#utility.yul\":328:364   */\n      mstore\n        /* \"#utility.yul\":255:370   */\n      pop\n      pop\n      jump\t// out\n        /* \"#utility.yul\":376:740   */\n    tag_72:\n        /* \"#utility.yul\":464:467   */\n      0x00\n        /* \"#utility.yul\":492:531   */\n      tag_74\n        /* \"#utility.yul\":525:530   */\n      dup3\n        /* \"#utility.yul\":492:531   */\n      tag_75\n      jump\t// in\n    tag_74:\n        /* \"#utility.yul\":547:618   */\n      tag_76\n        /* \"#utility.yul\":611:617   */\n      dup2\n        /* \"#utility.yul\":606:609   */\n      dup6\n        /* \"#utility.yul\":547:618   */\n      tag_77\n      jump\t// in\n    tag_76:\n        /* \"#utility.yul\":540:618   */\n      swap4\n      pop\n        /* \"#utility.yul\":627:679   */\n      tag_78\n        /* \"#utility.yul\":672:678   */\n      dup2\n        /* \"#utility.yul\":667:670   */\n      dup6\n        /* \"#utility.yul\":660:664   */\n      0x20\n        /* \"#utility.yul\":653:658   */\n      dup7\n        /* \"#utility.yul\":649:665   */\n      add\n        /* \"#utility.yul\":627:679   */\n      tag_79\n      jump\t// in\n    tag_78:\n        /* \"#utility.yul\":704:733   */\n      tag_80\n        /* \"#utility.yul\":726:732   */\n      dup2\n        /* \"#utility.yul\":704:733   */\n      tag_81\n      jump\t// in\n    tag_80:\n        /* \"#utility.yul\":699:702   */\n      dup5\n        /* \"#utility.yul\":695:734   */\n      add\n        /* \"#utility.yul\":688:734   */\n      swap2\n      pop\n        /* \"#utility.yul\":468:740   */\n      pop\n        /* \"#utility.yul\":376:740   */\n      swap3\n      swap2\n      pop\n      pop\n      jump\t// out\n        /* \"#utility.yul\":746:864   */\n    tag_82:\n        /* \"#utility.yul\":833:857   */\n      tag_84\n        /* \"#utility.yul\":851:856   */\n      dup2\n        /* \"#utility.yul\":833:857   */\n      tag_85\n      jump\t// in\n    tag_84:\n        /* \"#utility.yul\":828:831   */\n      dup3\n        /* \"#utility.yul\":821:858   */\n      mstore\n        /* \"#utility.yul\":746:864   */\n      pop\n      pop\n      jump\t// out\n        /* \"#utility.yul\":870:982   */\n    tag_86:\n        /* \"#utility.yul\":953:975   */\n      tag_88\n        /* \"#utility.yul\":969:974   */\n      dup2\n        /* \"#utility.yul\":953:975   */\n      tag_89\n      jump\t// in\n    tag_88:\n        /* \"#utility.yul\":948:951   */\n      dup3\n        /* \"#utility.yul\":941:976   */\n      mstore\n        /* \"#utility.yul\":870:982   */\n      pop\n      pop\n      jump\t// out\n        /* \"#utility.yul\":988:1210   */\n    tag_20:\n        /* \"#utility.yul\":1081:1085   */\n      0x00\n        /* \"#utility.yul\":1119:1121   */\n      0x20\n        /* \"#utility.yul\":1108:1117   */\n      dup3\n        /* \"#utility.yul\":1104:1122   */\n      add\n        /* \"#utility.yul\":1096:1122   */\n      swap1\n      pop\n        /* \"#utility.yul\":1132:1203   */\n      tag_91\n        /* \"#utility.yul\":1200:1201   */\n      0x00\n        /* \"#utility.yul\":1189:1198   */\n      dup4\n        /* \"#utility.yul\":1185:1202   */\n      add\n        /* \"#utility.yul\":1176:1182   */\n      dup5\n        /* \"#utility.yul\":1132:1203   */\n      tag_60\n      jump\t// in\n    tag_91:\n        /* \"#utility.yul\":988:1210   */\n      swap3\n      swap2\n      pop\n      pop\n      jump\t// out\n        /* \"#utility.yul\":1216:1438   */\n    tag_32:\n        /* \"#utility.yul\":1309:1313   */\n      0x00\n        /* \"#utility.yul\":1347:1349   */\n      0x20\n        /* \"#utility.yul\":1336:1345   */\n      dup3\n        /* \"#utility.yul\":1332:1350   */\n      add\n        /* \"#utility.yul\":1324:1350   */\n      swap1\n      pop\n        /* \"#utility.yul\":1360:1431   */\n      tag_93\n        /* \"#utility.yul\":1428:1429   */\n      0x00\n        /* \"#utility.yul\":1417:1426   */\n      dup4\n        /* \"#utility.yul\":1413:1430   */\n      add\n        /* \"#utility.yul\":1404:1410   */\n      dup5\n        /* \"#utility.yul\":1360:1431   */\n      tag_64\n      jump\t// in\n    tag_93:\n        /* \"#utility.yul\":1216:1438   */\n      swap3\n      swap2\n      pop\n      pop\n      jump\t// out\n        /* \"#utility.yul\":1444:1662   */\n    tag_24:\n        /* \"#utility.yul\":1535:1539   */\n      0x00\n        /* \"#utility.yul\":1573:1575   */\n      0x20\n        /* \"#utility.yul\":1562:1571   */\n      dup3\n        /* \"#utility.yul\":1558:1576   */\n      add\n        /* \"#utility.yul\":1550:1576   */\n      swap1\n      pop\n        /* \"#utility.yul\":1586:1655   */\n      tag_95\n        /* \"#utility.yul\":1652:1653   */\n      0x00\n        /* \"#utility.yul\":1641:1650   */\n      dup4\n        /* \"#utility.yul\":1637:1654   */\n      add\n        /* \"#utility.yul\":1628:1634   */\n      dup5\n        /* \"#utility.yul\":1586:1655   */\n      tag_68\n      jump\t// in\n    tag_95:\n        /* \"#utility.yul\":1444:1662   */\n      swap3\n      swap2\n      pop\n      pop\n      jump\t// out\n        /* \"#utility.yul\":1668:1981   */\n    tag_28:\n        /* \"#utility.yul\":1781:1785   */\n      0x00\n        /* \"#utility.yul\":1819:1821   */\n      0x20\n        /* \"#utility.yul\":1808:1817   */\n      dup3\n        /* \"#utility.yul\":1804:1822   */\n      add\n        /* \"#utility.yul\":1796:1822   */\n      swap1\n      pop\n        /* \"#utility.yul\":1868:1877   */\n      dup2\n        /* \"#utility.yul\":1862:1866   */\n      dup2\n        /* \"#utility.yul\":1858:1878   */\n      sub\n        /* \"#utility.yul\":1854:1855   */\n      0x00\n        /* \"#utility.yul\":1843:1852   */\n      dup4\n        /* \"#utility.yul\":1839:1856   */\n      add\n        /* \"#utility.yul\":1832:1879   */\n      mstore\n        /* \"#utility.yul\":1896:1974   */\n      tag_97\n        /* \"#utility.yul\":1969:1973   */\n      dup2\n        /* \"#utility.yul\":1960:1966   */\n      dup5\n        /* \"#utility.yul\":1896:1974   */\n      tag_72\n      jump\t// in\n    tag_97:\n        /* \"#utility.yul\":1888:1974   */\n      swap1\n      pop\n        /* \"#utility.yul\":1668:1981   */\n      swap3\n      swap2\n      pop\n      pop\n      jump\t// out\n        /* \"#utility.yul\":1987:2209   */\n    tag_16:\n        /* \"#utility.yul\":2080:2084   */\n      0x00\n        /* \"#utility.yul\":2118:2120   */\n      0x20\n        /* \"#utility.yul\":2107:2116   */\n      dup3\n        /* \"#utility.yul\":2103:2121   */\n      add\n        /* \"#utility.yul\":2095:2121   */\n      swap1\n      pop\n        /* \"#utility.yul\":2131:2202   */\n      tag_99\n        /* \"#utility.yul\":2199:2200   */\n      0x00\n        /* \"#utility.yul\":2188:2197   */\n      dup4\n        /* \"#utility.yul\":2184:2201   */\n      add\n        /* \"#utility.yul\":2175:2181   */\n      dup5\n        /* \"#utility.yul\":2131:2202   */\n      tag_82\n      jump\t// in\n    tag_99:\n        /* \"#utility.yul\":1987:2209   */\n      swap3\n      swap2\n      pop\n      pop\n      jump\t// out\n        /* \"#utility.yul\":2215:2638   */\n    tag_39:\n        /* \"#utility.yul\":2356:2360   */\n      0x00\n        /* \"#utility.yul\":2394:2396   */\n      0x40\n        /* \"#utility.yul\":2383:2392   */\n      dup3\n        /* \"#utility.yul\":2379:2397   */\n      add\n        /* \"#utility.yul\":2371:2397   */\n      swap1\n      pop\n        /* \"#utility.yul\":2407:2478   */\n      tag_101\n        /* \"#utility.yul\":2475:2476   */\n      0x00\n        /* \"#utility.yul\":2464:2473   */\n      dup4\n        /* \"#utility.yul\":2460:2477   */\n      add\n        /* \"#utility.yul\":2451:2457   */\n      dup6\n        /* \"#utility.yul\":2407:2478   */\n      tag_82\n      jump\t// in\n    tag_101:\n        /* \"#utility.yul\":2525:2534   */\n      dup2\n        /* \"#utility.yul\":2519:2523   */\n      dup2\n        /* \"#utility.yul\":2515:2535   */\n      sub\n        /* \"#utility.yul\":2510:2512   */\n      0x20\n        /* \"#utility.yul\":2499:2508   */\n      dup4\n        /* \"#utility.yul\":2495:2513   */\n      add\n        /* \"#utility.yul\":2488:2536   */\n      mstore\n        /* \"#utility.yul\":2553:2631   */\n      tag_102\n        /* \"#utility.yul\":2626:2630   */\n      dup2\n        /* \"#utility.yul\":2617:2623   */\n      dup5\n        /* \"#utility.yul\":2553:2631   */\n      tag_72\n      jump\t// in\n    tag_102:\n        /* \"#utility.yul\":2545:2631   */\n      swap1\n      pop\n        /* \"#utility.yul\":2215:2638   */\n      swap4\n      swap3\n      pop\n      pop\n      pop\n      jump\t// out\n        /* \"#utility.yul\":2644:2858   */\n    tag_46:\n        /* \"#utility.yul\":2733:2737   */\n      0x00\n        /* \"#utility.yul\":2771:2773   */\n      0x20\n        /* \"#utility.yul\":2760:2769   */\n      dup3\n        /* \"#utility.yul\":2756:2774   */\n      add\n        /* \"#utility.yul\":2748:2774   */\n      swap1\n      pop\n        /* \"#utility.yul\":2784:2851   */\n      tag_104\n        /* \"#utility.yul\":2848:2849   */\n      0x00\n        /* \"#utility.yul\":2837:2846   */\n      dup4\n        /* \"#utility.yul\":2833:2850   */\n      add\n        /* \"#utility.yul\":2824:2830   */\n      dup5\n        /* \"#utility.yul\":2784:2851   */\n      tag_86\n      jump\t// in\n    tag_104:\n        /* \"#utility.yul\":2644:2858   */\n      swap3\n      swap2\n      pop\n      pop\n      jump\t// out\n        /* \"#utility.yul\":2864:2963   */\n    tag_75:\n        /* \"#utility.yul\":2916:2922   */\n      0x00\n        /* \"#utility.yul\":2950:2955   */\n      dup2\n        /* \"#utility.yul\":2944:2956   */\n      mload\n        /* \"#utility.yul\":2934:2956   */\n      swap1\n      pop\n        /* \"#utility.yul\":2864:2963   */\n      swap2\n      swap1\n      pop\n      jump\t// out\n        /* \"#utility.yul\":2969:3138   */\n    tag_77:\n        /* \"#utility.yul\":3053:3064   */\n      0x00\n        /* \"#utility.yul\":3087:3093   */\n      dup3\n        /* \"#utility.yul\":3082:3085   */\n      dup3\n        /* \"#utility.yul\":3075:3094   */\n      mstore\n        /* \"#utility.yul\":3127:3131   */\n      0x20\n        /* \"#utility.yul\":3122:3125   */\n      dup3\n        /* \"#utility.yul\":3118:3132   */\n      add\n        /* \"#utility.yul\":3103:3132   */\n      swap1\n      pop\n        /* \"#utility.yul\":2969:3138   */\n      swap3\n      swap2\n      pop\n      pop\n      jump\t// out\n        /* \"#utility.yul\":3144:3240   */\n    tag_63:\n        /* \"#utility.yul\":3181:3188   */\n      0x00\n        /* \"#utility.yul\":3210:3234   */\n      tag_108\n        /* \"#utility.yul\":3228:3233   */\n      dup3\n        /* \"#utility.yul\":3210:3234   */\n      tag_109\n      jump\t// in\n    tag_108:\n        /* \"#utility.yul\":3199:3234   */\n      swap1\n      pop\n        /* \"#utility.yul\":3144:3240   */\n      swap2\n      swap1\n      pop\n      jump\t// out\n        /* \"#utility.yul\":3246:3323   */\n    tag_67:\n        /* \"#utility.yul\":3283:3290   */\n      0x00\n        /* \"#utility.yul\":3312:3317   */\n      dup2\n        /* \"#utility.yul\":3301:3317   */\n      swap1\n      pop\n        /* \"#utility.yul\":3246:3323   */\n      swap2\n      swap1\n      pop\n      jump\t// out\n        /* \"#utility.yul\":3329:3405   */\n    tag_71:\n        /* \"#utility.yul\":3365:3372   */\n      0x00\n        /* \"#utility.yul\":3394:3399   */\n      dup2\n        /* \"#utility.yul\":3383:3399   */\n      swap1\n      pop\n        /* \"#utility.yul\":3329:3405   */\n      swap2\n      swap1\n      pop\n      jump\t// out\n        /* \"#utility.yul\":3411:3537   */\n    tag_109:\n        /* \"#utility.yul\":3448:3455   */\n      0x00\n        /* \"#utility.yul\":3488:3530   */\n      0xffffffffffffffffffffffffffffffffffffffff\n        /* \"#utility.yul\":3481:3486   */\n      dup3\n        /* \"#utility.yul\":3477:3531   */\n      and\n        /* \"#utility.yul\":3466:3531   */\n      swap1\n      pop\n        /* \"#utility.yul\":3411:3537   */\n      swap2\n      swap1\n      pop\n      jump\t// out\n        /* \"#utility.yul\":3543:3620   */\n    tag_85:\n        /* \"#utility.yul\":3580:3587   */\n      0x00\n        /* \"#utility.yul\":3609:3614   */\n      dup2\n        /* \"#utility.yul\":3598:3614   */\n      swap1\n      pop\n        /* \"#utility.yul\":3543:3620   */\n      swap2\n      swap1\n      pop\n      jump\t// out\n        /* \"#utility.yul\":3626:3712   */\n    tag_89:\n        /* \"#utility.yul\":3661:3668   */\n      0x00\n        /* \"#utility.yul\":3701:3705   */\n      0xff\n        /* \"#utility.yul\":3694:3699   */\n      dup3\n        /* \"#utility.yul\":3690:3706   */\n      and\n        /* \"#utility.yul\":3679:3706   */\n      swap1\n      pop\n        /* \"#utility.yul\":3626:3712   */\n      swap2\n      swap1\n      pop\n      jump\t// out\n        /* \"#utility.yul\":3718:4025   */\n    tag_79:\n        /* \"#utility.yul\":3786:3787   */\n      0x00\n        /* \"#utility.yul\":3796:3909   */\n    tag_116:\n        /* \"#utility.yul\":3810:3816   */\n      dup4\n        /* \"#utility.yul\":3807:3808   */\n      dup2\n        /* \"#utility.yul\":3804:3817   */\n      lt\n        /* \"#utility.yul\":3796:3909   */\n      iszero\n      tag_118\n      jumpi\n        /* \"#utility.yul\":3895:3896   */\n      dup1\n        /* \"#utility.yul\":3890:3893   */\n      dup3\n        /* \"#utility.yul\":3886:3897   */\n      add\n        /* \"#utility.yul\":3880:3898   */\n      mload\n        /* \"#utility.yul\":3876:3877   */\n      dup2\n        /* \"#utility.yul\":3871:3874   */\n      dup5\n        /* \"#utility.yul\":3867:3878   */\n      add\n        /* \"#utility.yul\":3860:3899   */\n      mstore\n        /* \"#utility.yul\":3832:3834   */\n      0x20\n        /* \"#utility.yul\":3829:3830   */\n      dup2\n        /* \"#utility.yul\":3825:3835   */\n      add\n        /* \"#utility.yul\":3820:3835   */\n      swap1\n      pop\n        /* \"#utility.yul\":3796:3909   */\n      jump(tag_116)\n    tag_118:\n        /* \"#utility.yul\":3927:3933   */\n      dup4\n        /* \"#utility.yul\":3924:3925   */\n      dup2\n        /* \"#utility.yul\":3921:3934   */\n      gt\n        /* \"#utility.yul\":3918:4019   */\n      iszero\n      tag_119\n      jumpi\n        /* \"#utility.yul\":4007:4008   */\n      0x00\n        /* \"#utility.yul\":3998:4004   */\n      dup5\n        /* \"#utility.yul\":3993:3996   */\n      dup5\n        /* \"#utility.yul\":3989:4005   */\n      add\n        /* \"#utility.yul\":3982:4009   */\n      mstore\n        /* \"#utility.yul\":3918:4019   */\n    tag_119:\n        /* \"#utility.yul\":3767:4025   */\n      pop\n        /* \"#utility.yul\":3718:4025   */\n      pop\n      pop\n      pop\n      jump\t// out\n        /* \"#utility.yul\":4031:4351   */\n    tag_48:\n        /* \"#utility.yul\":4075:4081   */\n      0x00\n        /* \"#utility.yul\":4112:4113   */\n      0x02\n        /* \"#utility.yul\":4106:4110   */\n      dup3\n        /* \"#utility.yul\":4102:4114   */\n      div\n        /* \"#utility.yul\":4092:4114   */\n      swap1\n      pop\n        /* \"#utility.yul\":4159:4160   */\n      0x01\n        /* \"#utility.yul\":4153:4157   */\n      dup3\n        /* \"#utility.yul\":4149:4161   */\n      and\n        /* \"#utility.yul\":4180:4198   */\n      dup1\n        /* \"#utility.yul\":4170:4251   */\n      tag_121\n      jumpi\n        /* \"#utility.yul\":4236:4240   */\n      0x7f\n        /* \"#utility.yul\":4228:4234   */\n      dup3\n        /* \"#utility.yul\":4224:4241   */\n      and\n        /* \"#utility.yul\":4214:4241   */\n      swap2\n      pop\n        /* \"#utility.yul\":4170:4251   */\n    tag_121:\n        /* \"#utility.yul\":4298:4300   */\n      0x20\n        /* \"#utility.yul\":4290:4296   */\n      dup3\n        /* \"#utility.yul\":4287:4301   */\n      lt\n        /* \"#utility.yul\":4267:4285   */\n      dup2\n        /* \"#utility.yul\":4264:4302   */\n      eq\n        /* \"#utility.yul\":4261:4345   */\n      iszero\n      tag_122\n      jumpi\n        /* \"#utility.yul\":4317:4335   */\n      tag_123\n      tag_124\n      jump\t// in\n    tag_123:\n        /* \"#utility.yul\":4261:4345   */\n    tag_122:\n        /* \"#utility.yul\":4082:4351   */\n      pop\n        /* \"#utility.yul\":4031:4351   */\n      swap2\n      swap1\n      pop\n      jump\t// out\n        /* \"#utility.yul\":4357:4537   */\n    tag_124:\n        /* \"#utility.yul\":4405:4482   */\n      0x4e487b7100000000000000000000000000000000000000000000000000000000\n        /* \"#utility.yul\":4402:4403   */\n      0x00\n        /* \"#utility.yul\":4395:4483   */\n      mstore\n        /* \"#utility.yul\":4502:4506   */\n      0x22\n        /* \"#utility.yul\":4499:4500   */\n      0x04\n        /* \"#utility.yul\":4492:4507   */\n      mstore\n        /* \"#utility.yul\":4526:4530   */\n      0x24\n        /* \"#utility.yul\":4523:4524   */\n      0x00\n        /* \"#utility.yul\":4516:4531   */\n      revert\n        /* \"#utility.yul\":4543:4645   */\n    tag_81:\n        /* \"#utility.yul\":4584:4590   */\n      0x00\n        /* \"#utility.yul\":4635:4637   */\n      0x1f\n        /* \"#utility.yul\":4631:4638   */\n      not\n        /* \"#utility.yul\":4626:4628   */\n      0x1f\n        /* \"#utility.yul\":4619:4624   */\n      dup4\n        /* \"#utility.yul\":4615:4629   */\n      add\n        /* \"#utility.yul\":4611:4639   */\n      and\n        /* \"#utility.yul\":4601:4639   */\n      swap1\n      pop\n        /* \"#utility.yul\":4543:4645   */\n      swap2\n      swap1\n      pop\n      jump\t// out\n\n    auxdata: 0xa264697066735822122073def831f9516c71fac762d079436b52a2365fc4f0cf07163154ee762047bc8d64736f6c63430008070033\n}\n",
				"bytecode": {
					"linkReferences": {},
					"object": "608060405260016000556001805560016002556001600360006101000a81548160ff021916908360ff1602179055506040518060400160405280600c81526020017f48656c6c6f2c20776f726c6400000000000000000000000000000000000000008152506004908051906020019061007992919061017b565b507f48656c6c6f2c20776f726c6400000000000000000000000000000000000000006005557345b4b861265e78d7750d7407965535d38dd3a6c2600660006101000a81548173ffffffffffffffffffffffffffffffffffffffff021916908373ffffffffffffffffffffffffffffffffffffffff1602179055506040518060400160405280600181526020016040518060400160405280600d81526020017f48656c6c6f2c20776f726c642100000000000000000000000000000000000000815250815250600760008201518160000155602082015181600101908051906020019061016692919061017b565b50505034801561017557600080fd5b5061027f565b8280546101879061021e565b90600052602060002090601f0160209004810192826101a957600085556101f0565b82601f106101c257805160ff19168380011785556101f0565b828001600101855582156101f0579182015b828111156101ef5782518255916020019190600101906101d4565b5b5090506101fd9190610201565b5090565b5b8082111561021a576000816000905550600101610202565b5090565b6000600282049050600182168061023657607f821691505b6020821081141561024a57610249610250565b5b50919050565b7f4e487b7100000000000000000000000000000000000000000000000000000000600052602260045260246000fd5b6105df8061028e6000396000f3fe608060405234801561001057600080fd5b50600436106100935760003560e01c80634b3e7e0c116100665780634b3e7e0c1461011057806369bd01c41461012e5780638bc9fe6c1461014c578063a7dbce1c1461016b578063e2a4b2af1461018957610093565b806306540f7e1461009857806326b85ee1146100b65780632cb777a6146100d4578063492bfa18146100f2575b600080fd5b6100a06101a7565b6040516100ad9190610425565b60405180910390f35b6100be6101ad565b6040516100cb91906103b2565b60405180910390f35b6100dc6101d3565b6040516100e991906103e8565b60405180910390f35b6100fa6101d9565b6040516101079190610403565b60405180910390f35b610118610267565b60405161012591906103cd565b60405180910390f35b61013661026d565b6040516101439190610425565b60405180910390f35b61015461027b565b604051610162929190610440565b60405180910390f35b610173610315565b6040516101809190610425565b60405180910390f35b61019161031b565b60405161019e9190610470565b60405180910390f35b60015481565b600660009054906101000a900473ffffffffffffffffffffffffffffffffffffffff1681565b60005481565b600480546101e690610537565b80601f016020809104026020016040519081016040528092919081815260200182805461021290610537565b801561025f5780601f106102345761010080835404028352916020019161025f565b820191906000526020600020905b81548152906001019060200180831161024257829003601f168201915b505050505081565b60055481565b600080600190508091505090565b600780600001549080600101805461029290610537565b80601f01602080910402602001604051908101604052809291908181526020018280546102be90610537565b801561030b5780601f106102e05761010080835404028352916020019161030b565b820191906000526020600020905b8154815290600101906020018083116102ee57829003601f168201915b5050505050905082565b60025481565b600360009054906101000a900460ff1681565b610337816104a7565b82525050565b610346816104b9565b82525050565b610355816104c3565b82525050565b60006103668261048b565b6103708185610496565b9350610380818560208601610504565b61038981610598565b840191505092915050565b61039d816104ed565b82525050565b6103ac816104f7565b82525050565b60006020820190506103c7600083018461032e565b92915050565b60006020820190506103e2600083018461033d565b92915050565b60006020820190506103fd600083018461034c565b92915050565b6000602082019050818103600083015261041d818461035b565b905092915050565b600060208201905061043a6000830184610394565b92915050565b60006040820190506104556000830185610394565b8181036020830152610467818461035b565b90509392505050565b600060208201905061048560008301846103a3565b92915050565b600081519050919050565b600082825260208201905092915050565b60006104b2826104cd565b9050919050565b6000819050919050565b6000819050919050565b600073ffffffffffffffffffffffffffffffffffffffff82169050919050565b6000819050919050565b600060ff82169050919050565b60005b83811015610522578082015181840152602081019050610507565b83811115610531576000848401525b50505050565b6000600282049050600182168061054f57607f821691505b6020821081141561056357610562610569565b5b50919050565b7f4e487b7100000000000000000000000000000000000000000000000000000000600052602260045260246000fd5b6000601f19601f830116905091905056fea264697066735822122073def831f9516c71fac762d079436b52a2365fc4f0cf07163154ee762047bc8d64736f6c63430008070033",
					"opcodes": "PUSH1 0x80 PUSH1 0x40 MSTORE PUSH1 0x1 PUSH1 0x0 SSTORE PUSH1 0x1 DUP1 SSTORE PUSH1 0x1 PUSH1 0x2 SSTORE PUSH1 0x1 PUSH1 0x3 PUSH1 0x0 PUSH2 0x100 EXP DUP2 SLOAD DUP2 PUSH1 0xFF MUL NOT AND SWAP1 DUP4 PUSH1 0xFF AND MUL OR SWAP1 SSTORE POP PUSH1 0x40 MLOAD DUP1 PUSH1 0x40 ADD PUSH1 0x40 MSTORE DUP1 PUSH1 0xC DUP2 MSTORE PUSH1 0x20 ADD PUSH32 0x48656C6C6F2C20776F726C640000000000000000000000000000000000000000 DUP2 MSTORE POP PUSH1 0x4 SWAP1 DUP1 MLOAD SWAP1 PUSH1 0x20 ADD SWAP1 PUSH2 0x79 SWAP3 SWAP2 SWAP1 PUSH2 0x17B JUMP JUMPDEST POP PUSH32 0x48656C6C6F2C20776F726C640000000000000000000000000000000000000000 PUSH1 0x5 SSTORE PUSH20 0x45B4B861265E78D7750D7407965535D38DD3A6C2 PUSH1 0x6 PUSH1 0x0 PUSH2 0x100 EXP DUP2 SLOAD DUP2 PUSH20 0xFFFFFFFFFFFFFFFFFFFFFFFFFFFFFFFFFFFFFFFF MUL NOT AND SWAP1 DUP4 PUSH20 0xFFFFFFFFFFFFFFFFFFFFFFFFFFFFFFFFFFFFFFFF AND MUL OR SWAP1 SSTORE POP PUSH1 0x40 MLOAD DUP1 PUSH1 0x40 ADD PUSH1 0x40 MSTORE DUP1 PUSH1 0x1 DUP2 MSTORE PUSH1 0x20 ADD PUSH1 0x40 MLOAD DUP1 PUSH1 0x40 ADD PUSH1 0x40 MSTORE DUP1 PUSH1 0xD DUP2 MSTORE PUSH1 0x20 ADD PUSH32 0x48656C6C6F2C20776F726C642100000000000000000000000000000000000000 DUP2 MSTORE POP DUP2 MSTORE POP PUSH1 0x7 PUSH1 0x0 DUP3 ADD MLOAD DUP2 PUSH1 0x0 ADD SSTORE PUSH1 0x20 DUP3 ADD MLOAD DUP2 PUSH1 0x1 ADD SWAP1 DUP1 MLOAD SWAP1 PUSH1 0x20 ADD SWAP1 PUSH2 0x166 SWAP3 SWAP2 SWAP1 PUSH2 0x17B JUMP JUMPDEST POP POP POP CALLVALUE DUP1 ISZERO PUSH2 0x175 JUMPI PUSH1 0x0 DUP1 REVERT JUMPDEST POP PUSH2 0x27F JUMP JUMPDEST DUP3 DUP1 SLOAD PUSH2 0x187 SWAP1 PUSH2 0x21E JUMP JUMPDEST SWAP1 PUSH1 0x0 MSTORE PUSH1 0x20 PUSH1 0x0 KECCAK256 SWAP1 PUSH1 0x1F ADD PUSH1 0x20 SWAP1 DIV DUP2 ADD SWAP3 DUP3 PUSH2 0x1A9 JUMPI PUSH1 0x0 DUP6 SSTORE PUSH2 0x1F0 JUMP JUMPDEST DUP3 PUSH1 0x1F LT PUSH2 0x1C2 JUMPI DUP1 MLOAD PUSH1 0xFF NOT AND DUP4 DUP1 ADD OR DUP6 SSTORE PUSH2 0x1F0 JUMP JUMPDEST DUP3 DUP1 ADD PUSH1 0x1 ADD DUP6 SSTORE DUP3 ISZERO PUSH2 0x1F0 JUMPI SWAP2 DUP3 ADD JUMPDEST DUP3 DUP2 GT ISZERO PUSH2 0x1EF JUMPI DUP3 MLOAD DUP3 SSTORE SWAP2 PUSH1 0x20 ADD SWAP2 SWAP1 PUSH1 0x1 ADD SWAP1 PUSH2 0x1D4 JUMP JUMPDEST JUMPDEST POP SWAP1 POP PUSH2 0x1FD SWAP2 SWAP1 PUSH2 0x201 JUMP JUMPDEST POP SWAP1 JUMP JUMPDEST JUMPDEST DUP1 DUP3 GT ISZERO PUSH2 0x21A JUMPI PUSH1 0x0 DUP2 PUSH1 0x0 SWAP1 SSTORE POP PUSH1 0x1 ADD PUSH2 0x202 JUMP JUMPDEST POP SWAP1 JUMP JUMPDEST PUSH1 0x0 PUSH1 0x2 DUP3 DIV SWAP1 POP PUSH1 0x1 DUP3 AND DUP1 PUSH2 0x236 JUMPI PUSH1 0x7F DUP3 AND SWAP2 POP JUMPDEST PUSH1 0x20 DUP3 LT DUP2 EQ ISZERO PUSH2 0x24A JUMPI PUSH2 0x249 PUSH2 0x250 JUMP JUMPDEST JUMPDEST POP SWAP2 SWAP1 POP JUMP JUMPDEST PUSH32 0x4E487B7100000000000000000000000000000000000000000000000000000000 PUSH1 0x0 MSTORE PUSH1 0x22 PUSH1 0x4 MSTORE PUSH1 0x24 PUSH1 0x0 REVERT JUMPDEST PUSH2 0x5DF DUP1 PUSH2 0x28E PUSH1 0x0 CODECOPY PUSH1 0x0 RETURN INVALID PUSH1 0x80 PUSH1 0x40 MSTORE CALLVALUE DUP1 ISZERO PUSH2 0x10 JUMPI PUSH1 0x0 DUP1 REVERT JUMPDEST POP PUSH1 0x4 CALLDATASIZE LT PUSH2 0x93 JUMPI PUSH1 0x0 CALLDATALOAD PUSH1 0xE0 SHR DUP1 PUSH4 0x4B3E7E0C GT PUSH2 0x66 JUMPI DUP1 PUSH4 0x4B3E7E0C EQ PUSH2 0x110 JUMPI DUP1 PUSH4 0x69BD01C4 EQ PUSH2 0x12E JUMPI DUP1 PUSH4 0x8BC9FE6C EQ PUSH2 0x14C JUMPI DUP1 PUSH4 0xA7DBCE1C EQ PUSH2 0x16B JUMPI DUP1 PUSH4 0xE2A4B2AF EQ PUSH2 0x189 JUMPI PUSH2 0x93 JUMP JUMPDEST DUP1 PUSH4 0x6540F7E EQ PUSH2 0x98 JUMPI DUP1 PUSH4 0x26B85EE1 EQ PUSH2 0xB6 JUMPI DUP1 PUSH4 0x2CB777A6 EQ PUSH2 0xD4 JUMPI DUP1 PUSH4 0x492BFA18 EQ PUSH2 0xF2 JUMPI JUMPDEST PUSH1 0x0 DUP1 REVERT JUMPDEST PUSH2 0xA0 PUSH2 0x1A7 JUMP JUMPDEST PUSH1 0x40 MLOAD PUSH2 0xAD SWAP2 SWAP1 PUSH2 0x425 JUMP JUMPDEST PUSH1 0x40 MLOAD DUP1 SWAP2 SUB SWAP1 RETURN JUMPDEST PUSH2 0xBE PUSH2 0x1AD JUMP JUMPDEST PUSH1 0x40 MLOAD PUSH2 0xCB SWAP2 SWAP1 PUSH2 0x3B2 JUMP JUMPDEST PUSH1 0x40 MLOAD DUP1 SWAP2 SUB SWAP1 RETURN JUMPDEST PUSH2 0xDC PUSH2 0x1D3 JUMP JUMPDEST PUSH1 0x40 MLOAD PUSH2 0xE9 SWAP2 SWAP1 PUSH2 0x3E8 JUMP JUMPDEST PUSH1 0x40 MLOAD DUP1 SWAP2 SUB SWAP1 RETURN JUMPDEST PUSH2 0xFA PUSH2 0x1D9 JUMP JUMPDEST PUSH1 0x40 MLOAD PUSH2 0x107 SWAP2 SWAP1 PUSH2 0x403 JUMP JUMPDEST PUSH1 0x40 MLOAD DUP1 SWAP2 SUB SWAP1 RETURN JUMPDEST PUSH2 0x118 PUSH2 0x267 JUMP JUMPDEST PUSH1 0x40 MLOAD PUSH2 0x125 SWAP2 SWAP1 PUSH2 0x3CD JUMP JUMPDEST PUSH1 0x40 MLOAD DUP1 SWAP2 SUB SWAP1 RETURN JUMPDEST PUSH2 0x136 PUSH2 0x26D JUMP JUMPDEST PUSH1 0x40 MLOAD PUSH2 0x143 SWAP2 SWAP1 PUSH2 0x425 JUMP JUMPDEST PUSH1 0x40 MLOAD DUP1 SWAP2 SUB SWAP1 RETURN JUMPDEST PUSH2 0x154 PUSH2 0x27B JUMP JUMPDEST PUSH1 0x40 MLOAD PUSH2 0x162 SWAP3 SWAP2 SWAP1 PUSH2 0x440 JUMP JUMPDEST PUSH1 0x40 MLOAD DUP1 SWAP2 SUB SWAP1 RETURN JUMPDEST PUSH2 0x173 PUSH2 0x315 JUMP JUMPDEST PUSH1 0x40 MLOAD PUSH2 0x180 SWAP2 SWAP1 PUSH2 0x425 JUMP JUMPDEST PUSH1 0x40 MLOAD DUP1 SWAP2 SUB SWAP1 RETURN JUMPDEST PUSH2 0x191 PUSH2 0x31B JUMP JUMPDEST PUSH1 0x40 MLOAD PUSH2 0x19E SWAP2 SWAP1 PUSH2 0x470 JUMP JUMPDEST PUSH1 0x40 MLOAD DUP1 SWAP2 SUB SWAP1 RETURN JUMPDEST PUSH1 0x1 SLOAD DUP2 JUMP JUMPDEST PUSH1 0x6 PUSH1 0x0 SWAP1 SLOAD SWAP1 PUSH2 0x100 EXP SWAP1 DIV PUSH20 0xFFFFFFFFFFFFFFFFFFFFFFFFFFFFFFFFFFFFFFFF AND DUP2 JUMP JUMPDEST PUSH1 0x0 SLOAD DUP2 JUMP JUMPDEST PUSH1 0x4 DUP1 SLOAD PUSH2 0x1E6 SWAP1 PUSH2 0x537 JUMP JUMPDEST DUP1 PUSH1 0x1F ADD PUSH1 0x20 DUP1 SWAP2 DIV MUL PUSH1 0x20 ADD PUSH1 0x40 MLOAD SWAP1 DUP2 ADD PUSH1 0x40 MSTORE DUP1 SWAP3 SWAP2 SWAP1 DUP2 DUP2 MSTORE PUSH1 0x20 ADD DUP3 DUP1 SLOAD PUSH2 0x212 SWAP1 PUSH2 0x537 JUMP JUMPDEST DUP1 ISZERO PUSH2 0x25F JUMPI DUP1 PUSH1 0x1F LT PUSH2 0x234 JUMPI PUSH2 0x100 DUP1 DUP4 SLOAD DIV MUL DUP4 MSTORE SWAP2 PUSH1 0x20 ADD SWAP2 PUSH2 0x25F JUMP JUMPDEST DUP3 ADD SWAP2 SWAP1 PUSH1 0x0 MSTORE PUSH1 0x20 PUSH1 0x0 KECCAK256 SWAP1 JUMPDEST DUP2 SLOAD DUP2 MSTORE SWAP1 PUSH1 0x1 ADD SWAP1 PUSH1 0x20 ADD DUP1 DUP4 GT PUSH2 0x242 JUMPI DUP3 SWAP1 SUB PUSH1 0x1F AND DUP3 ADD SWAP2 JUMPDEST POP POP POP POP POP DUP2 JUMP JUMPDEST PUSH1 0x5 SLOAD DUP2 JUMP JUMPDEST PUSH1 0x0 DUP1 PUSH1 0x1 SWAP1 POP DUP1 SWAP2 POP POP SWAP1 JUMP JUMPDEST PUSH1 0x7 DUP1 PUSH1 0x0 ADD SLOAD SWAP1 DUP1 PUSH1 0x1 ADD DUP1 SLOAD PUSH2 0x292 SWAP1 PUSH2 0x537 JUMP JUMPDEST DUP1 PUSH1 0x1F ADD PUSH1 0x20 DUP1 SWAP2 DIV MUL PUSH1 0x20 ADD PUSH1 0x40 MLOAD SWAP1 DUP2 ADD PUSH1 0x40 MSTORE DUP1 SWAP3 SWAP2 SWAP1 DUP2 DUP2 MSTORE PUSH1 0x20 ADD DUP3 DUP1 SLOAD PUSH2 0x2BE SWAP1 PUSH2 0x537 JUMP JUMPDEST DUP1 ISZERO PUSH2 0x30B JUMPI DUP1 PUSH1 0x1F LT PUSH2 0x2E0 JUMPI PUSH2 0x100 DUP1 DUP4 SLOAD DIV MUL DUP4 MSTORE SWAP2 PUSH1 0x20 ADD SWAP2 PUSH2 0x30B JUMP JUMPDEST DUP3 ADD SWAP2 SWAP1 PUSH1 0x0 MSTORE PUSH1 0x20 PUSH1 0x0 KECCAK256 SWAP1 JUMPDEST DUP2 SLOAD DUP2 MSTORE SWAP1 PUSH1 0x1 ADD SWAP1 PUSH1 0x20 ADD DUP1 DUP4 GT PUSH2 0x2EE JUMPI DUP3 SWAP1 SUB PUSH1 0x1F AND DUP3 ADD SWAP2 JUMPDEST POP POP POP POP POP SWAP1 POP DUP3 JUMP JUMPDEST PUSH1 0x2 SLOAD DUP2 JUMP JUMPDEST PUSH1 0x3 PUSH1 0x0 SWAP1 SLOAD SWAP1 PUSH2 0x100 EXP SWAP1 DIV PUSH1 0xFF AND DUP2 JUMP JUMPDEST PUSH2 0x337 DUP2 PUSH2 0x4A7 JUMP JUMPDEST DUP3 MSTORE POP POP JUMP JUMPDEST PUSH2 0x346 DUP2 PUSH2 0x4B9 JUMP JUMPDEST DUP3 MSTORE POP POP JUMP JUMPDEST PUSH2 0x355 DUP2 PUSH2 0x4C3 JUMP JUMPDEST DUP3 MSTORE POP POP JUMP JUMPDEST PUSH1 0x0 PUSH2 0x366 DUP3 PUSH2 0x48B JUMP JUMPDEST PUSH2 0x370 DUP2 DUP6 PUSH2 0x496 JUMP JUMPDEST SWAP4 POP PUSH2 0x380 DUP2 DUP6 PUSH1 0x20 DUP7 ADD PUSH2 0x504 JUMP JUMPDEST PUSH2 0x389 DUP2 PUSH2 0x598 JUMP JUMPDEST DUP5 ADD SWAP2 POP POP SWAP3 SWAP2 POP POP JUMP JUMPDEST PUSH2 0x39D DUP2 PUSH2 0x4ED JUMP JUMPDEST DUP3 MSTORE POP POP JUMP JUMPDEST PUSH2 0x3AC DUP2 PUSH2 0x4F7 JUMP JUMPDEST DUP3 MSTORE POP POP JUMP JUMPDEST PUSH1 0x0 PUSH1 0x20 DUP3 ADD SWAP1 POP PUSH2 0x3C7 PUSH1 0x0 DUP4 ADD DUP5 PUSH2 0x32E JUMP JUMPDEST SWAP3 SWAP2 POP POP JUMP JUMPDEST PUSH1 0x0 PUSH1 0x20 DUP3 ADD SWAP1 POP PUSH2 0x3E2 PUSH1 0x0 DUP4 ADD DUP5 PUSH2 0x33D JUMP JUMPDEST SWAP3 SWAP2 POP POP JUMP JUMPDEST PUSH1 0x0 PUSH1 0x20 DUP3 ADD SWAP1 POP PUSH2 0x3FD PUSH1 0x0 DUP4 ADD DUP5 PUSH2 0x34C JUMP JUMPDEST SWAP3 SWAP2 POP POP JUMP JUMPDEST PUSH1 0x0 PUSH1 0x20 DUP3 ADD SWAP1 POP DUP2 DUP2 SUB PUSH1 0x0 DUP4 ADD MSTORE PUSH2 0x41D DUP2 DUP5 PUSH2 0x35B JUMP JUMPDEST SWAP1 POP SWAP3 SWAP2 POP POP JUMP JUMPDEST PUSH1 0x0 PUSH1 0x20 DUP3 ADD SWAP1 POP PUSH2 0x43A PUSH1 0x0 DUP4 ADD DUP5 PUSH2 0x394 JUMP JUMPDEST SWAP3 SWAP2 POP POP JUMP JUMPDEST PUSH1 0x0 PUSH1 0x40 DUP3 ADD SWAP1 POP PUSH2 0x455 PUSH1 0x0 DUP4 ADD DUP6 PUSH2 0x394 JUMP JUMPDEST DUP2 DUP2 SUB PUSH1 0x20 DUP4 ADD MSTORE PUSH2 0x467 DUP2 DUP5 PUSH2 0x35B JUMP JUMPDEST SWAP1 POP SWAP4 SWAP3 POP POP POP JUMP JUMPDEST PUSH1 0x0 PUSH1 0x20 DUP3 ADD SWAP1 POP PUSH2 0x485 PUSH1 0x0 DUP4 ADD DUP5 PUSH2 0x3A3 JUMP JUMPDEST SWAP3 SWAP2 POP POP JUMP JUMPDEST PUSH1 0x0 DUP2 MLOAD SWAP1 POP SWAP2 SWAP1 POP JUMP JUMPDEST PUSH1 0x0 DUP3 DUP3 MSTORE PUSH1 0x20 DUP3 ADD SWAP1 POP SWAP3 SWAP2 POP POP JUMP JUMPDEST PUSH1 0x0 PUSH2 0x4B2 DUP3 PUSH2 0x4CD JUMP JUMPDEST SWAP1 POP SWAP2 SWAP1 POP JUMP JUMPDEST PUSH1 0x0 DUP2 SWAP1 POP SWAP2 SWAP1 POP JUMP JUMPDEST PUSH1 0x0 DUP2 SWAP1 POP SWAP2 SWAP1 POP JUMP JUMPDEST PUSH1 0x0 PUSH20 0xFFFFFFFFFFFFFFFFFFFFFFFFFFFFFFFFFFFFFFFF DUP3 AND SWAP1 POP SWAP2 SWAP1 POP JUMP JUMPDEST PUSH1 0x0 DUP2 SWAP1 POP SWAP2 SWAP1 POP JUMP JUMPDEST PUSH1 0x0 PUSH1 0xFF DUP3 AND SWAP1 POP SWAP2 SWAP1 POP JUMP JUMPDEST PUSH1 0x0 JUMPDEST DUP4 DUP2 LT ISZERO PUSH2 0x522 JUMPI DUP1 DUP3 ADD MLOAD DUP2 DUP5 ADD MSTORE PUSH1 0x20 DUP2 ADD SWAP1 POP PUSH2 0x507 JUMP JUMPDEST DUP4 DUP2 GT ISZERO PUSH2 0x531 JUMPI PUSH1 0x0 DUP5 DUP5 ADD MSTORE JUMPDEST POP POP POP POP JUMP JUMPDEST PUSH1 0x0 PUSH1 0x2 DUP3 DIV SWAP1 POP PUSH1 0x1 DUP3 AND DUP1 PUSH2 0x54F JUMPI PUSH1 0x7F DUP3 AND SWAP2 POP JUMPDEST PUSH1 0x20 DUP3 LT DUP2 EQ ISZERO PUSH2 0x563 JUMPI PUSH2 0x562 PUSH2 0x569 JUMP JUMPDEST JUMPDEST POP SWAP2 SWAP1 POP JUMP JUMPDEST PUSH32 0x4E487B7100000000000000000000000000000000000000000000000000000000 PUSH1 0x0 MSTORE PUSH1 0x22 PUSH1 0x4 MSTORE PUSH1 0x24 PUSH1 0x0 REVERT JUMPDEST PUSH1 0x0 PUSH1 0x1F NOT PUSH1 0x1F DUP4 ADD AND SWAP1 POP SWAP2 SWAP1 POP JUMP INVALID LOG2 PUSH5 0x6970667358 0x22 SLT KECCAK256 PUSH20 0xDEF831F9516C71FAC762D079436B52A2365FC4F0 0xCF SMOD AND BALANCE SLOAD 0xEE PUSH23 0x2047BC8D64736F6C634300080700330000000000000000 "
				},
				"gasEstimates": {
					"creation": {
						"codeDepositCost": "300600",
						"executionCost": "infinite",
						"totalCost": "infinite"
					},
					"external": {
						"getvalue()": "372",
						"myAddress()": "2537",
						"myBytes32()": "2429",
						"myInt()": "2474",
						"myString()": "infinite",
						"myStruct()": "infinite",
						"myUint()": "2430",
						"myUint256()": "2495",
						"myUint8()": "2559"
					}
				},
				"methodIdentifiers": {
					"getvalue()": "69bd01c4",
					"myAddress()": "26b85ee1",
					"myBytes32()": "4b3e7e0c",
					"myInt()": "2cb777a6",
					"myString()": "492bfa18",
					"myStruct()": "8bc9fe6c",
					"myUint()": "06540f7e",
					"myUint256()": "a7dbce1c",
					"myUint8()": "e2a4b2af"
				}
			},
			"storageLayout": {
				"storage": [
					{
						"astId": 4,
						"contract": "contracts/MyContract.sol:MyContract",
						"label": "myInt",
						"offset": 0,
						"slot": "0",
						"type": "t_int256"
					},
					{
						"astId": 7,
						"contract": "contracts/MyContract.sol:MyContract",
						"label": "myUint",
						"offset": 0,
						"slot": "1",
						"type": "t_uint256"
					},
					{
						"astId": 10,
						"contract": "contracts/MyContract.sol:MyContract",
						"label": "myUint256",
						"offset": 0,
						"slot": "2",
						"type": "t_uint256"
					},
					{
						"astId": 13,
						"contract": "contracts/MyContract.sol:MyContract",
						"label": "myUint8",
						"offset": 0,
						"slot": "3",
						"type": "t_uint8"
					},
					{
						"astId": 16,
						"contract": "contracts/MyContract.sol:MyContract",
						"label": "myString",
						"offset": 0,
						"slot": "4",
						"type": "t_string_storage"
					},
					{
						"astId": 19,
						"contract": "contracts/MyContract.sol:MyContract",
						"label": "myBytes32",
						"offset": 0,
						"slot": "5",
						"type": "t_bytes32"
					},
					{
						"astId": 22,
						"contract": "contracts/MyContract.sol:MyContract",
						"label": "myAddress",
						"offset": 0,
						"slot": "6",
						"type": "t_address"
					},
					{
						"astId": 34,
						"contract": "contracts/MyContract.sol:MyContract",
						"label": "myStruct",
						"offset": 0,
						"slot": "7",
						"type": "t_struct(MyStruct)27_storage"
					}
				],
				"types": {
					"t_address": {
						"encoding": "inplace",
						"label": "address",
						"numberOfBytes": "20"
					},
					"t_bytes32": {
						"encoding": "inplace",
						"label": "bytes32",
						"numberOfBytes": "32"
					},
					"t_int256": {
						"encoding": "inplace",
						"label": "int256",
						"numberOfBytes": "32"
					},
					"t_string_storage": {
						"encoding": "bytes",
						"label": "string",
						"numberOfBytes": "32"
					},
					"t_struct(MyStruct)27_storage": {
						"encoding": "inplace",
						"label": "struct MyContract.MyStruct",
						"members": [
							{
								"astId": 24,
								"contract": "contracts/MyContract.sol:MyContract",
								"label": "myUint",
								"offset": 0,
								"slot": "0",
								"type": "t_uint256"
							},
							{
								"astId": 26,
								"contract": "contracts/MyContract.sol:MyContract",
								"label": "myString",
								"offset": 0,
								"slot": "1",
								"type": "t_string_storage"
							}
						],
						"numberOfBytes": "64"
					},
					"t_uint256": {
						"encoding": "inplace",
						"label": "uint256",
						"numberOfBytes": "32"
					},
					"t_uint8": {
						"encoding": "inplace",
						"label": "uint8",
						"numberOfBytes": "1"
					}
				}
			},
			"userdoc": {
				"kind": "user",
				"methods": {},
				"version": 1
			}
		}
	}
}